:020000040800F2
:10000000F00A0020C9010008990600089B060008B4
:100010009F060008A3060008A706000800000000CD
:10002000000000000000000000000000AB06000817
:10003000AD06000800000000AF060008B106000889
:10004000E3010008E3010008E3010008E301000800
:10005000E3010008E3010008E3010008E3010008F0
:10006000E3010008E3010008E3010008E3010008E0
:10007000E3010008E3010008E3010008E3010008D0
:10008000E3010008E3010008E3010008E3010008C0
:10009000E3010008E3010008E3010008E3010008B0
:1000A000E3010008E3010008E3010008E3010008A0
:1000B000E3010008790600083506000889060008F3
:1000C00091060008E3010008E3010008E3010008CD
:1000D000E301000881060008E3010008E3010008CD
:1000E000E3010008E3010008E301000800F002F862
:1000F00000F05AF80AA090E8000C82448344AAF168
:100100000107DA4501D100F04FF8AFF2090EBAE865
:100110000F0013F0010F18BFFB1A43F0010318473B
:1001200000860000208600000A444FF0000C10F802
:10013000013B13F0070408BF10F8014B1D1108BF65
:1001400010F8015B641E05D010F8016B641E01F805
:10015000016BF9D113F0080F1EBF10F8014BAD1C55
:100160000C1B09D16D1E58BF01F801CBFAD505E073
:1001700014F8016B01F8016B6D1EF9D59142D6D3CD
:10018000704700000023002400250026103A28BFF5
:1001900078C1FBD8520728BF30C148BF0B607047F9
:1001A0001FB51FBD10B510BD06F044FD1146FFF789
:1001B000F7FF00F03CF906F062FD03B4FFF7F2FF31
:1001C00003BC06F063FD000009488047094800476A
:1001D000FEE7FEE7FEE7FEE7FEE7FEE7FEE7FEE7F7
:1001E000FEE7FEE704480549054A064B7047000054
:1001F000E5020008ED000008F0040020F00A0020ED
:10020000F0060020F00600200CB5002001900090C0
:100210006B48006840F480306949086000BF684856
:10022000006800F4003000900198401C0190009894
:1002300018B90198B0F5A06FF1D16148006810F4C9
:10024000003F02D00120009001E0002000900098C3
:10025000012842D15B48006840F01000594908600D
:100260000846006820F0030008600846006840F077
:10027000020008605248406851494860084640689A
:1002800048600846406840F480604860084640681E
:1002900020F47C1048600846406840F4E81048604C
:1002A0000846006840F08070086000BF444800685D
:1002B00010F0007FFAD04248406820F00300404927
:1002C00048600846406840F00200486000BF3C4873
:1002D000406800F00C000828F9D10CBD10B5FFF7FC
:1002E00093FF10BD10B53648006840F00100344956
:1002F000086008464068344908403149486008466B
:100300000068324908402E4908600846006820F419
:10031000802008600846406820F4FE0048604FF4E2
:100320001F008860FFF7DAFF4FF00060284908607F
:1003300010BD10B5002100200022214B5B6803F0A6
:100340000C0121B1042906D0082928D107E0214B4E
:10035000214C236027E01F4B1F4C236023E0184BE8
:100360005B6803F47010164B5B6803F48032022361
:1003700003EB904022B9194B4343174C23600DE027
:100380000F4B5B6813F4003F04D0144B4343124CF3
:10039000236003E00F4B43430F4C236003E00D4BFE
:1003A0000D4C236000BF00BF054B5B68C3F3031314
:1003B0000B4CE15C084B1B68CB40074C236010BD25
:1003C00000100240002002400000FFF8FFFFF6FE90
:1003D00008ED00E000127A000000002000093D0056
:1003E0000400002010B502F028FB02F03AFB4FF4A5
:1003F000E13003F0C7FB02F05FFC4FF4FA7003F04A
:10040000BDF903F00CFA01F0DDFE02F0BDFF02F0D1
:100410008DFE03F098FF01F020FF01F039FF01F09D
:1004200061FF01F0F2FF012003F0C9F910BDFFF7F1
:10043000D9FFD2E0694800780028FAD00020674947
:10044000087067480078401C654908706548007866
:10045000401C6449087008460078142808D1002020
:100460000870614803F0CEF960495F4801F038FE3A
:100470005B480078012804D15D495E4802F051FCD8
:10048000ABE00020564908705B495C4802F049FC2B
:100490005849B1F90010594AB2F90020881800EB08
:1004A000D071491009B2564A11805249B1F902106F
:1004B000524AB2F90220881800EBD071491009B2F3
:1004C0004F4A51804B49B1F904104C4AB2F904200B
:1004D000881800EBD071491009B2494A918044490B
:1004E000B1F90010444AB2F90020881800EBD0712D
:1004F000491009B2434A11803D49B1F902103E4A00
:10050000B2F90220881800EBD071491009B23D4AB7
:1005100051803749B1F90410374AB2F904208818DC
:1005200000EBD071491009B2364A918036493448FF
:1005300001F06EFA354A3449324801F0B3FA2B48DB
:100540000378294A2F49314800F0BCF82748007841
:1005500010B102F0E8FA04E04FF480512C4804F0A6
:10056000BCFA2C480078401C2A4908702A480078B8
:10057000401C2949087029480078401C2749087008
:1005800027480078401C2649087022480078052832
:1005900005D100201F4908700120224908701E481B
:1005A0000078052805D100201B49087001201E494C
:1005B00008701A4800780A2805D1002017490870E9
:1005C00001201A490870164800780A2805D1002031
:1005D000134908700120164908702BE71500002008
:1005E00016000020170000205C0100204C000020B5
:1005F00024000020180000202A0000201E000020F7
:10060000340000203A00002040000020500100206B
:10061000000C01403000002031000020320000209A
:1006200033000020720000207100002073000020C1
:100630007800002010B51F48008810F0010F1AD074
:100640004FF6FE701B4908801B480068401C1A4981
:1006500008601A480078401C18490870084600785D
:10066000022806D10020087002F0A7FC01201449DE
:10067000087001F065F910BD10B503F068F910BD00
:1006800010B503F0D3FA10BD10B506F008F910BD8F
:1006900010B506F0A5FA10BD704700BFFEE700BF19
:1006A000FEE700BFFEE700BFFEE7704770477047F8
:1006B00070470000100800400C0100204D00002091
:1006C000150000202DE9FE4F06460D4614461F4634
:1006D000B4F90000A0F2DC50142190FBF1F9484677
:1006E00007F062FD8046316807F0A7FE0090B4F97C
:1006F0000200A0F2DC50142190FBF1F9484607F00B
:1007000053FD8046716807F0AFFB0190B94800992E
:10071000006807F0A9FBB7490860B749B548006809
:1007200007F05AFE02D2B448B2490860B349B14852
:10073000006807F051FD02D2B048AE490860B04AE7
:100740000099106807F07CFDAD494860B5F90000DC
:1007500007F02AFD8046AA480169404607F070FD6F
:10076000A74948618868A349096807F069FDA44959
:10077000C860A4480199006807F076FBA1490860A9
:100780009D49A048006807F027FE02D29A489D497B
:1007900008609A499B48006807F01EFD02D29748FE
:1007A00098490860984A0199106807F049FD9649F0
:1007B0004860B5F9020007F0F7FC804692480169ED
:1007C000404607F03DFD9049486188688D490968B9
:1007D00007F036FD8C49C860B4F90600B0F5B96F72
:1007E00004DBB4F90600B0F5BE6F09DDA988E08826
:1007F000A0F2DC5000EB800001EB400000B2A880CA
:10080000B5F9040007F0D0FC8246804907F018FDD6
:1008100081467F4907F014FD80467E4801684046C6
:1008200007F022FB7B4908607B4908687949096821
:1008300007F006FD78494860B5F9040007F0B4FCFC
:10084000804675480169404607F0FAFC72494861E4
:10085000B4F90400B0F5966F06DA00206949086023
:10086000644908606B4908606548406880F0004949
:100870006348C168484607F0EBFD8046604841691F
:10088000404607F0F1FA5E49C8615F4AD168506896
:1008900007F0EAFA80465C484169404607F0E4FA0E
:1008A0005949C8615C4AD168506807F0DDFA804652
:1008B00059484169404607F0D7FA5749C861B4F929
:1008C0000400B0F5966F7BDD002F79D0B4F90410E9
:1008D000A1F57A7007F068FC83464948C16958461B
:1008E00007F0B6FD82464848C169504607F0B0FDA2
:1008F00081464948C169484607F0AAFD804607F08D
:1009000017FC00B245490880B4F90410A1F57A70CB
:1009100007F04AFC83463A48C169584607F0A4FAF2
:1009200082463948C169504607F092FD81463A48EF
:10093000C169484607F098FA804607F0F9FB00B213
:1009400037490880B4F90410A1F57A7007F02CFC3F
:1009500083462B48C169584607F086FA82462A48E2
:10096000C169504607F080FA81462B48C169484664
:1009700007F06EFD804607F0DBFB00B229490880D6
:10098000B4F90410A1F57A7007F00EFC83461C48F8
:10099000C169584607F05CFD82461B48C169504654
:1009A00007F062FA81461C48C169484607F05CFAC4
:1009B000804607F0BDFB00B21B49088009E0FFE755
:1009C00000201649088016490880164908801649F3
:1009D00008801548B0F900301248B0F900201048DE
:1009E000B0F900100D48B0F9000002F0E5F8BDE8DC
:1009F000FE8F0000540000200000FA440000FAC4FA
:100A00007001002058000020900100208DC1793D28
:100A10006F12033B5C000020B0010020600000204A
:100A200062000020640000206600002031B500252F
:100A3000AA20F64908704870F02088700320C8701A
:100A4000BA2008719DF8010048719DF80000887176
:100A5000002405E0ED48005D2844C5B2601CC4B226
:100A6000072CF7DBE948C571082103F0AAF938BD66
:100A70002DE9F04104460D460026002704E0E05D24
:100A80003044C6B2781CC7B2681EB842F7DC6019A1
:100A900010F8010CB04201D0BDE8F0812078AA28FE
:100AA00002D16078AF2800D0F6E7A078012810D1F5
:100AB0002079012801D102F02CF92079022801D1F6
:100AC00002F02BF92079032803D102F022F902F079
:100AD00024F9A07802280ED12079012805D1CC492B
:100AE0000870CC490870CC4908702079022802D1DE
:100AF0000120CA490870A07810287DD12179090207
:100B000009B2627941EA020007F04EFB8046C4490F
:100B100007F018FAC3490860A179090209B2E2791D
:100B200041EA020007F040FB8046BF4907F00AFA9D
:100B3000BC498860217A090209B2627A41EA02005E
:100B400007F032FB8046B64907F0FCF9B549086169
:100B5000A17A090209B2E27A41EA020007F024FB15
:100B60008046AF4907F0EEF9B0490860217B0902E1
:100B700009B2627B41EA020007F016FB8046AA49EF
:100B800007F0E0F9A9498860A17B090209B2E27B7C
:100B900041EA020007F008FB8046A14907F0D2F9BC
:100BA000A2490861217C090209B2627C41EA020083
:100BB00007F0FAFA80469A4907F0C4F99C490860A0
:100BC000A17C090209B2E27C41EA020007F0ECFADA
:100BD0008046934907F0B6F995498860217D09025E
:100BE00009B2627D41EA020007F0DEFA80468C49D4
:100BF00007F0A8F98E4900E003E008613046FFF7EE
:100C000015FFA07811287DD12179090209B26279F6
:100C100041EA020007F0C8FA8046814907F092F9DC
:100C200084490860A179090209B2E27941EA020027
:100C300007F0BAFA80467A4907F084F97D4988605E
:100C4000217A090209B2627A41EA020007F0ACFA9D
:100C50008046734907F076F976490861A17A09025E
:100C600009B2E27A41EA020007F09EFA80466C4936
:100C700007F068F970490860217B090209B2627BBC
:100C800041EA020007F090FA8046654907F05AF9F8
:100C900069498860A17B090209B2E27B41EA02004E
:100CA00007F082FA80465E4907F04CF96249086114
:100CB000217C090209B2627C41EA020007F074FA61
:100CC0008046574907F03EF95C490860A17C09025B
:100CD00009B2E27C41EA020007F066FA8046504918
:100CE00007F030F955498860217D090209B2627D1B
:100CF00041EA020007F058FA8046494907F022F914
:100D00004E4900E003E008613046FFF78FFEA0780F
:100D100012282ED12179090209B2627941EA020032
:100D200007F042FA80463E4907F00CF94449086052
:100D3000A179090209B2E27941EA020007F034FA26
:100D40008046374907F0FEF83D498860217A09025C
:100D500009B2627A41EA020007F026FA8046304979
:100D600007F0F0F8364908613046FFF75FFE01F002
:100D7000CCFAA07816281BD12179090209B2627930
:100D800041EA020007F010FA8046274907F0DAF836
:100D90002C490860A179090209B2E27941EA02000E
:100DA00007F002FA8046204907F0CCF8264908608F
:100DB00000BF71E670B5072002F044FB044614F052
:100DC000400F14D0602002F03DFB0546212D09DACA
:100DD0002A461E49612002F069FB29461B48FFF79D
:100DE00047FE03E0FF21E22002F016FB00BF14F0F3
:100DF000100F06D014F0010F03D0FF21E12002F004
:100E00000BFB2146272002F007FB70BD500200209B
:100E1000750000207600002077000020740000207C
:100E20000000C8427001002000007A4490010020B8
:100E3000B0010020D0010020F001002010020020AD
:100E4000300200207C0000208000002008030020E9
:100E500010B5172002F0F6FA10BD70B50024002678
:100E6000AA222146641CF94842542146641C42547B
:100E700006222146641C425400222146641C42542E
:100E8000F34842782146641CF0484254F048027806
:100E90002146641CED484254EE4842782146641CC9
:100EA000EA484254EB4802782046611CCCB2E7493C
:100EB0000A54E94842782046611CCCB2E3490A54FE
:100EC000E54802782046611CCCB2E0490A54E34868
:100ED00042782046611CCCB2DC490A54DF480278D3
:100EE0002046611CCCB2D9490A54DD4842782046DC
:100EF000611CCCB2D5490A54D94802782046611CFD
:100F0000CCB2D2490A54D74842782046611CCCB2B0
:100F1000CE490A54D34802782046611CCCB2CB4952
:100F20000A54D14842782046611CCCB2C7490A54C1
:100F3000CD4802782146601CC4B2C4484254CB4814
:100F400042782046611CCCB2C0490A54C748027896
:100F50002046611CCCB2BD490A54201FC870002530
:100F600005E0BA48405D3044C6B2681CC5B2A5422F
:100F7000F7DB2046611CCCB2B4490E542146B3487D
:100F800002F01FFF70BDF8B500240026AA222146FA
:100F9000641CAE4842542146641C42541622214629
:100FA000641C425400222146641C4254B049B1489A
:100FB000006807F045F9074607F0BAF800B200905C
:100FC0009DF801202146641CA04842549DF8002051
:100FD0002146641C4254A649A748006807F030F92E
:100FE000074607F0A5F800B200909DF801202146C1
:100FF000641C964842549DF800202046611CCCB2E7
:1010000092490A54201FC870002505E08F48405DB2
:101010003044C6B2681CC5B2A542F7DB2046611C4D
:10102000CCB28A490E542146884802F0CAFEF8BD67
:1010300070B500240026AA222146641C834842542D
:101040002146641C425403222146641C425400225F
:101050002146641C4254894842792146641C7B48DD
:101060004254864802792146641C78484254834899
:10107000C2792146641C75484254804882792046D2
:10108000611CCCB271490A547C4842782046611CEC
:10109000CCB26E490A54794802782046611CCCB221
:1010A0006A490A547548C2782046611CCCB2674927
:1010B0000A54724882782046611CCCB263490A54B3
:1010C0006E48427A2046611CCCB260490A546B4893
:1010D000027A2146601CC4B25C4842546748C27A16
:1010E0002046611CCCB259490A546448827A204691
:1010F000611CCCB255490A546048427B2046611CB1
:10110000CCB252490A545D48027B2046611CCCB2E5
:101110004E490A545948C27B2046611CCCB24B4907
:101120000A545648827B2046611CCCB247490A5477
:101130005248427C2046611CCCB244490A544F4874
:10114000027C2046611CCCB240490A544B48C27C08
:101150002046611CCCB23D490A544848827C204656
:10116000611CCCB239490A54201FC870002505E023
:101170003648405D3044C6B2681CC5B2A542F7DBB4
:101180002046611CCCB231490E5421462F4802F052
:1011900018FE70BDF8B500240026AA222146641C62
:1011A0002A4842542146641C425412222146641C9F
:1011B000425400222146641C425431490868314996
:1011C00007F03EF8074606F0B3FF00B200909DF826
:1011D00001202146641C1D4842549DF800202146F0
:1011E000641C425426498868264907F029F80746B6
:1011F00006F09EFF00B200909DF801202146641C7D
:10120000124842549DF800202046611CCCB20F4980
:101210000A541B4908691B4907F012F8074606F0F3
:1012200087FF00B200909DF801202046611CCCB2DF
:1012300006490A549DF800202046611CCCB203499F
:101240000A54201FC870002524E00000500200202E
:101250006000002062000020640000206600002082
:10126000680000206A0000206C0000206E00002052
:1012700000007A447C000020800000205C010020F7
:10128000300200200000C842FD48405D3044C6B234
:10129000681CC5B2A542F7DB2046611CCCB2F849F8
:1012A0000E542146F64802F08CFDF8BDF8B5002436
:1012B0000026AA222146641CF14842542146641C9F
:1012C000425411222146641C425400222146641CCF
:1012D0004254EC490868EC4906F0B2FF074606F0B4
:1012E00027FF00B200909DF801202146641CE448CD
:1012F00042549DF800202146641C4254E14988680C
:10130000E14906F09DFF074606F012FF00B200908B
:101310009DF801202146641CD94842549DF80020C4
:101320002046611CCCB2D6490A54D6490869D64930
:1013300006F086FF074606F0FBFE00B200909DF81F
:1013400001202046611CCCB2CD490A549DF80020F2
:101350002046611CCCB2CA490A54CC490868CA4923
:1013600006F06EFF074606F0E3FE00B200909DF81F
:1013700001202046611CCCB2C1490A549DF80020CE
:101380002146601CC4B2BE484254C0498868BE4968
:1013900006F056FF074606F0CBFE00B200909DF81F
:1013A00001202046611CCCB2B5490A549DF80020AA
:1013B0002046611CCCB2B2490A54B4490869B2490A
:1013C00006F03EFF074606F0B3FE00B200909DF81F
:1013D00001202046611CCCB2A9490A549DF8002086
:1013E0002146601CC4B2A6484254A9490868A649CF
:1013F00006F026FF074606F09BFE00B200909DF81F
:1014000001202146601CC4B29D4842549DF8002032
:101410002046611CCCB29A490A549D4988689A4971
:1014200006F00EFF074606F083FE00B200909DF81E
:1014300001202046611CCCB291490A549DF800203D
:101440002146601CC4B28E484254914908698E49B5
:1014500006F0F6FE074606F06BFE00B200909DF81F
:1014600001202046611CCCB285490A549DF8002019
:101470002146601CC4B282484254201F8049C87073
:10148000002505E07E48405D3044C6B2681CC5B208
:10149000A542F7DB2046611CCCB279490E542146A7
:1014A000774802F08EFCF8BDF8B500240026AA2289
:1014B0002146641C724842542146641C4254102246
:1014C0002146641C425400222146641C4254714946
:1014D00008686D4906F0B4FE074606F029FE00B222
:1014E00000909DF801202146641C654842549DF8F7
:1014F00000202146641C425466498868664906F00B
:101500009FFE074606F014FE00B200909DF80120F1
:101510002146641C5A4842549DF800202046611C14
:10152000CCB257490A545B490869574906F088FE0E
:10153000074606F0FDFD00B200909DF80120204610
:10154000611CCCB24E490A549DF800202046611C13
:10155000CCB24B490A54514908684B4906F070FE19
:10156000074606F0E5FD00B200909DF801202046F8
:10157000611CCCB242490A549DF800202146601CEF
:10158000C4B23F48425445498868434906F058FE72
:10159000074606F0CDFD00B200909DF801202046E0
:1015A000611CCCB236490A549DF800202046611CCB
:1015B000CCB233490A5439490869334906F040FE30
:1015C000074606F0B5FD00B200909DF801202046C8
:1015D000611CCCB22A490A549DF800202146601CA7
:1015E000C4B2274842542E490868274906F028FE0D
:1015F000074606F09DFD00B200909DF801202146AF
:10160000601CC4B21E4842549DF800202046611C54
:10161000CCB21B490A54224988681B4906F010FEC7
:10162000074606F085FD00B200909DF80120204697
:10163000611CCCB212490A549DF800202146601C5E
:10164000C4B20F484254164908690F4906F0F8FD24
:10165000074606F06DFD00B200909DF8012020467F
:10166000611CCCB206490A549DF800202146601C3A
:10167000C4B203484254201F0149C870002517E036
:1016800050020020D00100200000C842F0010020DC
:10169000100200207001002000007A449001002018
:1016A000B0010020CB48405D3044C6B2681CC5B2D2
:1016B000A542F7DB2046611CCCB2C6490E54214638
:1016C000C44802F07EFBF8BD70B500240026AA22B3
:1016D0002146641CBF4842542146641C42540222E5
:1016E0002146641C425400222146641C4254BA48DC
:1016F00042782146641CB7484254B74802782146D4
:10170000641CB4484254B448C2782146641CB148B1
:101710004254B14882782046611CCCB2AD490A548B
:10172000AD4842792046611CCCB2AA490A54AA4865
:1017300002792046611CCCB2A6490A54A7484278D7
:101740002046611CCCB2A3490A54A4480278204622
:10175000611CCCB29F490A54A048C2782046611C43
:10176000CCB29C490A549D4882782046611CCCB278
:1017700098490A54994842792046611CCCB295494F
:101780000A54964802792046611CCCB291490A5409
:1017900000222046611CCCB28E490A542046611CAE
:1017A000CCB28C490A542046611CCCB289490A54F7
:1017B0002046611CCCB287490A542046611CCCB239
:1017C00084490A542046611CCCB282490A54201F25
:1017D000C870002505E07F48405D3044C6B2681CF3
:1017E000C5B2A542F7DB2046611CCCB279490E5444
:1017F0002146784802F0E5FA70BD2DE9FC4100244D
:101800007748006800900026AA222146641C71488F
:1018100042542146641C425401222146641C425415
:1018200000222146641C42546E4908686E4906F045
:1018300007FD074606F07CFC00B201909DF80520EC
:101840002146641C634842549DF804202146641CD0
:10185000425464494868644906F0F2FC074606F0C1
:1018600067FC00B201909DF805202146641C594890
:1018700042549DF804202146601CC4B2554842548D
:1018800058498868584906F0DBFC074606F050FCCA
:1018900000B201909DF805202046611CCCB24D4954
:1018A0000A549DF804202046611CCCB249490A54D0
:1018B0009DF803202046611CCCB246490A549DF88D
:1018C00002202146601CC4B2424842549DF80120C7
:1018D0002046611CCCB23F490A549DF800202146A5
:1018E000601CC4B23B4842544048007830B9A02242
:1018F0002046611CCCB237490A5409E03B480078C5
:10190000012805D1A1222146601CC4B231484254AD
:10191000201F3049C870002505E02E48405D304446
:10192000C6B2681CC5B2A542F7DB2046611CCCB22A
:1019300028490E542146274802F043FABDE8FC81AD
:1019400010B52B48007828B1002029490870FFF70E
:1019500054FF3DE02748007828B100202549087051
:10196000FFF7B2FE34E02448007828B10020224975
:101970000870FFF799FD2BE02048007828B100207F
:101980001E490870FFF792FC22E01D48007828B13C
:1019900000201B490870FFF7FDFB19E0194800788B
:1019A00028B1002017490870FFF742FB10E01648E5
:1019B000007828B1002014490870FFF7E4FA07E026
:1019C0001248007820B1002010490870FFF745FA4E
:1019D00010BD000050020020340000203A0000201A
:1019E00048000020500100200000C8424C000020A8
:1019F0007100002072000020750000207600002099
:101A00007700002073000020740000207800002080
:101A1000F0B502460023002400251688FE4FDFF8AB
:101A2000FCC39CF800C027F81C605688FC4FDFF808
:101A3000ECC39CF800C027F81C609688F94FDFF8CB
:101A4000DCC39CF800C027F81C6000200DE0F24EBB
:101A500036F910603344F24E36F910603444F14EDA
:101A600036F910603544461CF0B21428EFDB14261A
:101A700093FBF6F636B20E80142694FBF6F636B2D9
:101A80004E80142695FBF6F636B28E80E34E3678FD
:101A9000761CE24F3E703E463678142E01D1002669
:101AA0003E70F0BD07B5A8B02998B0F900001190BC
:101AB00006F07AFB26902998B0F90200119006F002
:101AC00073FB25902998B0F90400119006F06CFB87
:101AD00024902898B0F90000119006F065FB23903F
:101AE0002898B0F90200119006F05EFB2290289829
:101AF000B0F90400119006F057FB2190CA48016824
:101B0000006806F09DFB1990C8480168C648006847
:101B100006F096FB1890C6480168C348006806F0B6
:101B20008FFB1790C1480168006806F089FB16908A
:101B3000C0480168BD48006806F082FB1590BC48AB
:101B40000168006806F07CFB1490BA480168B84848
:101B5000006806F075FB1390B6480168006806F04F
:101B60006FFB1290DDE9251006F06AFB10902499B6
:101B700006F066FB0021119006F0A6FA01D12BB009
:101B800000BDAD49239806F05BFB2390AA4922983B
:101B900006F056FB2290A849219806F051FB2190AF
:101BA0002499084606F04CFB0C902599084606F04F
:101BB00047FB0A902699084606F042FB09900A99CD
:101BC00006F052F90B900C9906F04EF90D9006F0C4
:101BD0001FF9CDE90E0105F0E1FBCDE9100105F09B
:101BE00003FC20902099269806F0ACF926902099C5
:101BF000259806F0A7F925902099249806F0A2F9D7
:101C000024901799159806F023FC4FF0804111900D
:101C100006F016FB1F901399189806F025F94FF05F
:101C20008041119006F00CFB1E901699199806F051
:101C30000FFC1090149906F00BFC1190129906F00D
:101C400013F91D901E99249806F0FAFA11901D9927
:101C5000259806F0F5FA1090119906F0F9FB1C9002
:101C60001D99269806F0ECFA11901F99249806F019
:101C7000E7FA1090119906F0EBFB1B901F9925983D
:101C800006F0DEFA11901E99269806F0D9FA109007
:101C9000119906F0DDFB1A9068491C9806F0D0FAFD
:101CA000119067480168119806F0DEF864490860F1
:101CB00062491B9806F0C4FA1190624801681198B5
:101CC00006F0D2F85F4908605C491A9806F0B8FA45
:101CD00011905D480168119806F0C6F85A490860ED
:101CE0005A481C9906F0ACFA1090239906F0BCF8FB
:101CF000119053480168119806F0B6F823905348A4
:101D00001B9906F09DFA1090229906F0ADF81190FB
:101D10004C480168119806F0A7F822904B481A9990
:101D200006F08EFA1090219906F09EF81190464820
:101D30000168119806F098F821903E4821990068B2
:101D400006F07EFA0F903A482299006806F078FA79
:101D50000D903648006880F000400B90239906F003
:101D60006FFA0C900D9906F073FB0E900F9906F028
:101D70006FFB3249109006F063FA11902A4801680F
:101D8000119806F071F8284908602A4822990068DD
:101D900006F056FA0F9026482199006806F050FA8E
:101DA0000D9021482399006806F04AFA0C900D998D
:101DB00006F05AF80E900F9906F04AFB1F49109052
:101DC00006F03EFA119019480168119806F04CF897
:101DD0001649086017482399006806F031FA0F90F9
:101DE00012482199006806F02BFA0D900E482299AE
:101DF000006806F025FA0C900D9906F029FB0E906C
:101E00000F9906F031F80D49109006F019FA11906B
:101E10000748016811981BE082020020A000002002
:101E2000AA020020D20200208400002088000020A6
:101E30008C0000209000002089A18B3A6F12833A19
:101E400094000020980000209C000020CDCCCC3FC6
:101E500006F00AF89849086097482399006806F048
:101E6000EFF90F9095482299006806F0E9F90D9076
:101E700093482199006806F0E3F90C900D9905F05C
:101E8000F3FF0E900F9906F0E3FA8E49109006F0DA
:101E9000D7F911908C480168119805F0E5FF8A493F
:101EA000086008460168006806F0CAF90C9082488C
:101EB0000168006806F0C4F90A908048016800686B
:101EC00006F0BEF908907E480168006806F0B8F98F
:101ED0000790089905F0C8FF09900A9905F0C4FF1A
:101EE0000B900C9905F0C0FF0D9005F091FFCDE926
:101EF0000E0105F053FACDE9100105F075FA2090B6
:101F00006F482099006806F01DF86D4908606B481D
:101F10002099006806F016F868490860664820991C
:101F2000006806F00FF86449086067482099006867
:101F300006F008F8644908602898B0F904000E908B
:101F400006F032F961490F9006F07AF96049109075
:101F500006F076F911902A98806801461090119841
:101F600005F082FF2A9988605A48006805F050FF02
:101F7000CDE90E01524801684FF0804006F060F94B
:101F800004904D480168049806F05AF906904B48B1
:101F900001684FF0404006F053F904904A48016848
:101FA000049806F04DF90590069905F05DFF07903D
:101FB00005F02EFFCDE9080104F0E0FE4FF0663297
:101FC000454BCDE90A0105F049FCCDE90C01DDE9FD
:101FD0000E2305F033FECDE9100105F005FA2A992C
:101FE00048603E48006805F013FFCDE90E01324815
:101FF00001684FF0804006F023F901902E480168F7
:10200000019806F01DF903902C4801684FF04040FC
:1020100006F016F9019029480168019806F010F9B8
:102020000290039906F014FA4FF07E51049005F0E7
:102030001BFF059005F0ECFECDE908012048016882
:102040004FF0804006F0FCF802901C4801680298AE
:1020500006F0F6F80490184801684FF0804006F04A
:10206000EFF8029018480168029806F0E9F803902A
:10207000049905F0F9FE059005F0CAFECDE90601C8
:10208000DDE9082305F0CAF881F000414FF066321F
:10209000114BCDE90A0105F0E1FBCDE90C01DDE9C9
:1020A0000E2305F0CBFDCDE9100105F09DF92A992D
:1020B000086000BF63E500008C000020880000205D
:1020C000840000206F12833A90000020F1FF793DD8
:1020D0006F12033B8000002066A64C407C0000206D
:1020E00070B504460D46B4F90400B0F5966F12DAE7
:1020F000B4F90600B0F5966F0DDA30480078401C50
:102100002E490870084600784B281ED10020087020
:102110000120287019E0B4F90400B0F5966F11DAC7
:10212000B4F90600B0F5E16F0CDD24480078401CDE
:1021300022490870084600784B2806D10020087014
:10214000287002E000201D4908702878012800D17D
:1021500070BDB4F90400B0F5966F12DAB4F900005E
:10216000B0F5966F0DDA16480078401C14490870D7
:10217000084600784B281FD10020087000F0C9FDE8
:102180001AE0B4F90400B0F5966F12DAB4F9000061
:10219000B0F5E16F0DDD0A480078401C0849087071
:1021A000084600784B2807D10020087000F0B5FDE4
:1021B00002E000200249087000BFC9E7A10000202A
:1021C000A200002008B54FF4A06002F02FF82520EF
:1021D0008DF8000003208DF801008DF80200012029
:1021E0008DF80300684602F026F81E208DF80000E6
:1021F00002208DF8010001208DF802008DF8030007
:10220000684602F018F81D208DF8000000208DF8B7
:10221000010001208DF802008DF80300684602F0ED
:102220000AF820208DF8000001208DF801008DF8BB
:1022300002008DF80300684601F0FDFF1F208DF8B5
:10224000000003208DF8010001208DF802008DF8B8
:102250000300684601F0EFFF08BD10B500F03CFB3D
:1022600010BD10B5AD4A128891B2AD4A108800F089
:10227000BAFBAA4A528891B2A94A508800F0B3FB2F
:10228000A64A928891B2A64A908800F0ACFB10BD95
:1022900010B5A3490888A14900F0FCF9A049488875
:1022A0009E49891C00F0F6F99D4988889B49091DC3
:1022B00000F0F0F910BD10B59A4A128891B2984A10
:1022C000D08800F090FB974A528891B2944A1089C6
:1022D00000F089FB934A928891B2914A508900F0AC
:1022E00082FB10BD10B58E49C8888E4900F0D2F926
:1022F0008B4908898B49891C00F0CCF988494889A9
:102300008849091D00F0C6F910BD70B586490868F6
:10231000864905F095FF054605F026FF84B2804901
:102320008889214600F05FFB7F498868804905F075
:1023300087FF054605F018FF84B27949C889214610
:1023400000F051FB78490869784905F079FF0546A6
:1023500005F00AFF84B27249088A214600F043FB67
:1023600074490868714905F06BFF054605F0FCFEED
:1023700084B26B49488A214600F035FB6D49886874
:102380006B4905F05DFF054605F0EEFE84B2644939
:10239000888A214600F027FB66490869634905F0F1
:1023A0004FFF054605F0E0FE84B25D49C88A21462C
:1023B00000F019FB604908685C4905F041FF0546DB
:1023C00005F0D2FE84B25649088B214600F00BFB83
:1023D00059498868564905F033FF054605F0C4FEA3
:1023E00084B24F49488B214600F0FDFA52490869F2
:1023F0004E4905F025FF054605F0B6FE84B2484972
:10240000888B214600F0EFFA70BD38B544498889C1
:10241000694600F03FF9BDF9000005F0C5FE04462D
:10242000424905F08FFD404908603D49C889694629
:1024300000F030F9BDF9000005F0B6FE04463C4955
:1024400005F080FD384988603549088A694600F002
:1024500021F9BDF9000005F0A7FE0446334905F057
:1024600071FD314908612E49488A694600F012F928
:10247000BDF9000005F098FE04462C4905F062FD08
:102480002C4908602649888A694600F003F9BDF99D
:10249000000005F089FE0446254905F053FD254955
:1024A00088601F49C88A694600F0F4F8BDF9000049
:1024B00005F07AFE04461D4905F044FD1D490861FA
:1024C0001749088B694600F0E5F8BDF9000005F0F2
:1024D0006BFE0446154905F035FD174908601049A3
:1024E000488B694600F0D6F8BDF9000005F05CFEA7
:1024F00004460F4905F026FD0F4988600849888B7E
:10250000694600F0C7F8BDF9000005F04DFE04462D
:10251000064905F017FD0849086138BDFC00002098
:10252000A4000020F6000020700100200000C84236
:1025300000007A4490010020B001002003460621EB
:102540000622F8480188F8480288A3B1012B1AD165
:1025500032B9A1F56E40EE3800D170470120FCE79A
:1025600039B9A2F56E40EE3801D10120F5E700201F
:10257000F3E7AB20F1E709B90020EEE70AB9012043
:10258000EBE7AB20E9E70020E7E770B5042600247D
:102590000120FFF7D3FF0446AB2C06D1E14800EB46
:1025A0008420E2490860AB2070BDDE4800EB842047
:1025B000DE490860601CDB49891E01EB80250CE0C8
:1025C000DA4800680068401C02D104263046EBE778
:1025D000D6480068001DD5490860D4480068A84264
:1025E000EED38020E0E710B50424CE4801F0F0FEE1
:1025F0000446042C01D0204610BD0021C94801F03A
:10260000EAFF0446042C01D02046F5E7C64801F055
:10261000DFFE04462046EFE72DE9F04104460F4671
:1026200004250026DFF808830120FFF787FF064610
:10263000AB2E01D1BDE8F081701CBA49891E01EBB7
:10264000802821E0B94800680068401C17D139464D
:10265000B648006801F0BFFF0546042D01D02846AA
:10266000E8E72146B1480068801C01F0B4FF054648
:10267000AE480068001DAD4908602846DAE7AB485F
:102680000068001DA9490860A84800684045D9D3E2
:102690008020CFE72DE9F04706460F46002545F29A
:1026A00055584FF001099F4CA2460020FFF746FF06
:1026B0000546AB2D01D1BDE8F0879A4800EB852A8D
:1026C0009A480068841E0BE0B4F80080B04506D13B
:1026D00034F8020C00B238804FF0000904E0241FE7
:1026E0000AF102008442EFD800BF4846E3E72DE933
:1026F000F0474FF0060A062600250027A8464FF0AF
:10270000FF398848B0F800A0874806885FEA0A00C9
:1027100075D0A0F56E40EE382AD0A0F5885011385B
:102720006ED146B97F4801F053FE0446042C1ED0FA
:102730002046BDE8F087A6F56E40EE3810D1794806
:1027400001F046FE0446042C01D02046F1E70021AA
:10275000754801F040FF0446042C08D02046E8E705
:10276000FFF741FF0446042C01D02046E1E7B0E02A
:1027700086BB002523E06B48C0886E4931F81510F0
:10278000884201D10FFA85F94D4516D0694931F8D3
:1027900015006949FFF77EFF8046B8F1010F0CD0A4
:1027A000654A128891B2634A32F81500FFF734FF88
:1027B0000746042F01D03846BBE7681C85B20F2DB1
:1027C000D9DB0021574801F006FF0446042C02D053
:1027D0002046AEE707E0544801F0FAFD0446042C19
:1027E0001FD02046A5E7A6F57F40FF3812D14E48FE
:1027F00001F0EEFD0446042C03D0204699E711E0D9
:102800005FE00021474801F0E6FE0446042C08D0B2
:1028100020468EE7FFF7E7FE0446042C01D0204651
:1028200087E756E036B9FFF7DEFE0446042C47D0B2
:1028300020467EE7A6F57F40FF3807D13A4801F0F1
:10284000C7FD0446042C3BD0204672E7002524E057
:102850003548801D0088374931F81510884201D16C
:102860000FFA85F94D4516D0324931F81500324935
:10287000FFF710FF8046B8F1010F0CD02E4A1288E6
:1028800091B22C4A32F81500FFF7C6FE0746042F16
:1028900001D038464DE7681C85B20F2DD8DB0021EA
:1028A000214801F098FE0446042C01D0204640E760
:1028B0001C4801F08DFD0446042C01D0204638E769
:1028C00007E0FFF790FE0446042C01D0204630E7D5
:1028D00000BF00BF04202CE710B5FFF708FF044637
:1028E000FFF753FE204610BD2DE9F84F07468946F5
:1028F0000425DFF834A0AAF1010A0A4800904FF03D
:102900000008002400264FF0000B0020FFF716FE01
:102910008046B8F1010F11D1DFF808A002480090FD
:1029200017E000000000010800040108C8000020B2
:10293000FF070108A4000020C4000020B8F1000F28
:1029400004D1DFF8C8A03248009002E0AB20BDE817
:10295000F88F4EF6EE61504601F03DFE0546042D1F
:1029600001D02846F3E7FFF710FE49463846FFF747
:1029700053FE0646042E01D03046E8E700241DE051
:10298000244830F81400B84216D0224931F8140017
:102990002149FFF77FFE8346BBF1010F0CD01E4A91
:1029A000128891B21B4A32F81400FFF735FE064632
:1029B000042E01D03046CAE7601C84B20F2CDFDB46
:1029C000009801F005FD0546042D01D02846BEE71C
:1029D0000021504601F0FFFD0546042D01D0284698
:1029E000B5E72846B3E770B505460E4600243146E4
:1029F0002846FFF711FE0446802C04D131462846B4
:102A0000FFF772FF0446204670BD00000004010875
:102A100000000108A4000020C4000020002109E0FB
:102A2000002201E0531C9AB242F234139A42F9DBBD
:102A30004B1C99B28142F3DB704708B50121082095
:102A400002F058FC4FF48050ADF8000010208DF8D3
:102A5000030003208DF802006946524801F092FFFE
:102A600008BD10B54FF480514E4802F038F864208C
:102A7000FFF7D4FF4FF480514A4802F02EF864204B
:102A8000FFF7CCFF4FF48051464802F028F864204D
:102A9000FFF7C4FF4FF48051424802F01EF8642053
:102AA000FFF7BCFF4FF480513E4802F018F8642055
:102AB000FFF7B4FF4FF480513A4802F00EF864205B
:102AC000FFF7ACFF4FF48051364802F008F864205D
:102AD000FFF7A4FF4FF48051324801F0FEFF64205D
:102AE000FFF79CFF4FF480512E4801F0F8FF64205F
:102AF000FFF794FF4FF480512A4801F0EEFF642065
:102B0000FFF78CFF4FF48051264801F0E8FF642066
:102B1000FFF784FF4FF48051224801F0DEFF64206C
:102B2000FFF77CFF10BD10B51F480078E8B11F48C3
:102B3000007838B91E4800681E49086001201B490A
:102B400008702EE01B4800689630194909688842D1
:102B500027D20020144908704FF48051114801F029
:102B6000BCFF0020114908701BE01048007838B9FC
:102B70000F4800680F49086001200C49087010E0F8
:102B80000C48006896300A490968884209D2012039
:102B9000054908700103034801F0A1FF0020034923
:102BA000087010BD000C0140CD000020CC000020BA
:102BB0000C010020D000002030B5B0F57A7F01DB99
:102BC00040F2E730B1F57A7F01DB40F2E731B2F550
:102BD0007A7F01DB40F2E732B3F57A7F01DB40F226
:102BE000E733002800DA0020002900DA0021002A5B
:102BF00000DA0022002B00DA00234FF08045A8867F
:102C00002987AA87374D2B8030BD10B588B00024A6
:102C10000121084602F07BFB334800683349B0FBD2
:102C2000F1F0401E84B240F2E730ADF81800ADF884
:102C300014400020ADF81A00ADF8160005A94FF0B9
:102C4000804002F019FE6020ADF804000120ADF8CC
:102C500006000020ADF80A00ADF80C0001A94FF005
:102C6000804002F046FE0821C80603F091FA01A94F
:102C70004FF0804002F07FFE0821C80603F091FA71
:102C800001A94FF0804002F0C3FE0821C80603F0FE
:102C900095FA01A94FF0804002F005FF0821C8060F
:102CA00003F095FA0121880703F042FA0121880711
:102CB00003F03EF908B010BD08B50121042002F070
:102CC00019FB0F20ADF8000003208DF8020018203A
:102CD0008DF803006946064801F054FEFFF795FFA2
:102CE00008BD0000400000400000002000366E01DA
:102CF00000080140002109E0002201E0531C9AB2C3
:102D000042F234139A42F9DB4B1C99B28142F3DB55
:102D100070470020F849087070470020F749087094
:102D2000704730B587B005460C46F5484078F44901
:102D3000097840EA0120F349B1F90010401A0690E1
:102D4000EF48C078EE49897840EA0120ED49B1F9B1
:102D50000210401A0590EA484079E949097940EAA9
:102D60000120E849B1F90410401A0490E448407A7F
:102D7000E349097A40EA0120E349B1F90010401A19
:102D80000390DF48C07ADE49897A40EA0120DE49B3
:102D9000B1F90210401A0290D948407BD849097B0A
:102DA00040EA0120D849B1F90410401A0190069870
:102DB000B0F5004F00DB00E000BF069810F5004FB3
:102DC00000DA00E000BF0598B0F5004F00DB00E03E
:102DD00000BF059810F5004F00DA00E000BF04982E
:102DE000B0F5004F00DB00E000BF049810F5004F85
:102DF00000DA00E000BF0398B0F5004F00DB00E010
:102E000000BF039810F5004F00DA00E000BF029801
:102E1000B0F5004F00DB00E000BF029810F5004F56
:102E200000DA00E000BF0198B0F5004F00DB00E0E1
:102E300000BF019810F5004F00DA00E000BF0698CF
:102E400000B22880059800B26880049800B2A8807B
:102E5000039800B22080029800B26080019800B20E
:102E6000A080A6480078002854D1A848007878B9F6
:102E70000020A549088048808880A5490860A549A8
:102E80000860A54908600120A049087007B030BD5E
:102E9000B4F900009E49096808449D490860B4F9E6
:102EA00002009C49096808449A490860B4F9040082
:102EB0009949096808449849086094480078C828E6
:102EC00023D1934800689149097890FBF1F000B252
:102ED0008D4908808F4800688C49097890FBF1F093
:102EE00000B2894948808C4800688849097890FB7D
:102EF000F1F000B2844988800020844908700120E4
:102F00007E490870FFF7D7F9C0E780480078401C79
:102F10007E4908707848007800284CD17F480078B6
:102F200070B9002077490880488088807C49086013
:102F30007C4908607C490860012078490870A5E751
:102F4000B5F9000076490968084475490860B5F983
:102F50000200744909680844724908606F480078A3
:102F6000C82823D16E4800686C49097890FBF1F0BD
:102F700000B2644908806B4800686849097890FB92
:102F8000F1F000B25F4948806748006863490978FA
:102F900090FBF1F000B25B49888000205F49087027
:102FA000012055490870FFF75CF96FE75B4800782E
:102FB000401C5A49087000BF68E710B5504B0E22FC
:102FC0003B21D02003F0B9FB10BDF8B506460F46F3
:102FD00014461D466B4601223946304603F0ECFB91
:102FE0002DB10120A0409DF80010084305E001200C
:102FF000A0409DF8001021EA0000C0B200906B468E
:1030000001223946304603F038FCF8BD2DE9F8437B
:103010000746884614461D46089E6B4601224146D7
:10302000384603F0C9FB601CFF2101FA00F0C4F12F
:1030300008012944491EFF220A41104300F0FF09FC
:10304000C5F1080006FA00F0C6B2C4F10700064157
:103050009DF8000000EA090000909DF80000304350
:1030600000906B4601224146384603F006FCBDE85D
:10307000F88338B50446032302226B21D020009444
:10308000FFF7C4FF38BD38B50446022304221B21D4
:10309000D0200094FFF7BAFF38BD38B504460223AC
:1030A00004221C21D0200094FFF7B0FF38BD10B5DA
:1030B0000446234606226B21D020FFF786FF10BD71
:1030C00010B50446234605226A21D020FFF77DFF74
:1030D00010BD10B50446234601223721D020FFF74A
:1030E00074FF10BD38B50446032302221A21D020F4
:1030F0000094FFF78BFF38BDD5000020D4000020DE
:10310000FA020020FC000020F6000020E40000206D
:10311000D8000020DC000020E0000020F4000020A7
:10312000E8000020EC000020F000002010B5002096
:10313000FFF7BDFFC820FFF7DDFD0120FFF799FF76
:103140003220FFF7D7FD0320FFF79DFF3220FFF766
:10315000D1FD0120FFF7A1FF3220FFF7CBFD0320B7
:10316000FFF7C0FF3220FFF7C5FD0020FFF7A8FFE3
:103170003220FFF7BFFD0120FFF7ABFF3220FFF742
:10318000B9FD10BD70B504460D4601219D4801F002
:1031900000FE00BF9C499B4801F0DCFE0028F9D0EE
:1031A0000022D021974801F04AFE00BF9749954878
:1031B00001F0D0FE0028F9D02146924801F039FEF6
:1031C00000BF9249891C8F4801F0C4FE0028F8D046
:1031D00029468C4801F02DFE00BF8C49891C894886
:1031E00001F0B8FE0028F8D00121864801F0DDFD8D
:1031F00070BD70B5044600BF4FF40031814801F046
:10320000CBFE0028F8D101217E4801F0C2FD00BFAD
:103210007D497C4801F09EFE0028F9D00022D02193
:10322000784801F00CFE00BF7849764801F092FE24
:103230000028F9D00121734801F087FD214671482B
:1032400001F0F7FD00BF7149891C6E4801F082FE54
:103250000028F8D001216B4801F09BFD00BF6A49AE
:10326000684801F077FE0028F9D00122D021654896
:1032700001F0E5FD00BF6449491C624801F06AFEA7
:103280000028F8D000215F4801F09BFD01215D4836
:1032900001F08BFD5C493F315A4801F05BFE18B1EB
:1032A000584801F0C8FD05460121564801F089FD46
:1032B000284670BD70B505460E46144600BF4FF453
:1032C0000031504801F068FE0028F8D101214D4836
:1032D00001F05FFD00BF4C494A4801F03BFE002869
:1032E000F9D00022D021474801F0A9FD00BF47498D
:1032F000444801F02FFE0028F9D00121414801F097
:1033000024FD31463F4801F094FD00BF3F49891C30
:103310003C4801F01FFE0028F8D00121394801F097
:1033200038FD00BF3849374801F014FE0028F9D0B5
:103330000122D021334801F082FD00BF3249491CEF
:10334000304801F007FE0028F8D016E0012C07D124
:1033500000212C4801F035FD01212A4801F025FD0E
:1033600029493F31274801F0F5FD30B1254801F0EA
:1033700062FD28706D1C601EC4B2002CE6D10121D4
:10338000204801F01EFD70BD00B585B00121480543
:1033900001F0BDFF0121082001F0ACFFC020ADF815
:1033A000100003208DF812001C208DF8130004A9D2
:1033B000174801F0E7FA0020ADF804004BF6FF7063
:1033C000ADF80600A620ADF808004FF48060ADF817
:1033D0000A000001ADF80C000E48009001210948D8
:1033E00001F0B3FC6946074801F031FC01210548B2
:1033F00001F0E7FC01224FF44071024801F010FD9A
:1034000005B000BD00540040010003008200070029
:10341000000C0140801A060070B505460C464FF4BA
:103420008051944801F05BFB284600F088F906467D
:10343000204600F084F94FF480518E4801F04DFB96
:10344000304670BD70B504464FF48051894801F094
:1034500046FB204600F073F9002000F070F90546A5
:103460004FF48051834801F038FB284670BD2DE9A8
:10347000F04107460D4616464FF480517D4801F055
:103480002EFB384600F05BF98046002404E0285DFE
:1034900000F055F9601CC4B2B442F8DB4FF480511F
:1034A000744801F01AFB4046BDE8F0812DE9F04177
:1034B00007460D4616464FF480516E4801F00FFB4B
:1034C000384600F03CF98046002405E0002000F07A
:1034D00036F92855601CC4B2B442F7DB4FF4805172
:1034E000644801F0FAFA4046BDE8F08170B5044640
:1034F0000D464FF400615F4801F0F1FA05225E4984
:103500002A20FFF7B4FF2A462146A020FFF7AFFF8D
:103510004FF40061574801F0E0FA70BD70B5044601
:103520000D464FF40061534801F0D9FA2A4621466E
:10353000A820FFF79CFF4FF400614E4801F0CDFA40
:1035400070BD1CB505224C493020FFF790FF0522C5
:1035500069461020FFF7AAFF002408E01DF80400C8
:103560004549095D884200D003E0601CC4B2052CC7
:10357000F4DB00BF052C01D101201CBD0020FCE7BD
:1035800070B504460D464FF400613A4801F0A7FAC1
:1035900005223A492A20FFF76AFF052236493020E2
:1035A000FFF765FF01212120FFF736FF01212220CF
:1035B000FFF732FF1A212420FFF72EFF28212520B4
:1035C000FFF72AFF0F212620FFF726FF012C08D145
:1035D00020213120FFF720FF0F212020FFF71CFFC3
:1035E00041E0022C08D120213120FFF715FF0E21E8
:1035F0002020FFF711FF36E0032C1AD1FF21E12034
:10360000FFF70AFFFF21E220FFF706FF0F2120202E
:10361000FFF702FF502000F092F8732000F08FF8BF
:1036200001213C20FFF7F8FE06213D20FFF7F4FEC4
:1036300019E00E212020FFF7EFFEFF21E120FFF728
:10364000EBFEFF21E220FFF7E7FE502000F077F8C5
:10365000732000F074F801213C20FFF7DDFE062105
:103660003D20FFF7D9FE4FF40061024801F035FA22
:1036700070BD000000080140020100200701002089
:1036800000B587B00121082001F034FE0121880334
:1036900001F03DFE0121042001F02CFE4FF46040BA
:1036A000ADF8180018208DF81B0003208DF81A00C3
:1036B00006A92F4801F066F94FF4C050ADF8180084
:1036C00010208DF81B0003208DF81A0006A9294848
:1036D00001F058F94FF48070ADF8180028208DF8EB
:1036E0001B0006A9234801F04DF94FF480512148F1
:1036F00001F0F5F90020ADF804004FF48270ADF848
:1037000006000020ADF80800ADF80A00ADF80C0086
:103710004FF40070ADF80E001820ADF81000002036
:10372000ADF812000720ADF8140001A9124801F00D
:103730006FFE0121104801F010FF07B000BD10B569
:10374000044600BF02210C4801F08BFF0028F9D08D
:103750002146094801F032FF00BF0121064801F06F
:1037600080FF0028F9D0044801F02AFFC0B210BD44
:10377000000C014000080140003800403EB50446FE
:103780000121042001F0C3FD144801F0A1FFADF8B0
:1037900004404720ADF800000020ADF80600ADF869
:1037A000020069460D4802F067F801210B4802F05B
:1037B00085FE01221146094802F0D5FB3EBD10B539
:1037C00004461CB90021054802F0B2FB012C03D1CC
:1037D0000121024802F0ACFB10BD000000080040CF
:1037E000DB48008800B2DB494880D948408800B2F5
:1037F0000880D748808800B28880D548C08800B249
:10380000C8807047D34989888180D249C988C180DE
:10381000D04909880180CF4949884180704700B567
:1038200087B00121022001F072FD01210C2001F07E
:1038300061FDC020ADF8000003208DF802000420D7
:103840008DF803006946C44801F09CF80320ADF8E8
:1038500000008DF8020004208DF803006946BF487F
:1038600001F090F8BE4801F033FF4FF6FF70ADF85D
:1038700014004720ADF810000020ADF81600ADF898
:10388000120004A9B64801F0F7FF0020ADF80400CB
:103890000A20ADF806000120ADF808000020ADF8C0
:1038A0000A00ADF80C0001A9AD4802F078FA042036
:1038B000ADF804000A20ADF806000120ADF80800BC
:1038C0000020ADF80A00ADF80C0001A9A44802F0F0
:1038D00066FA0820ADF804000A20ADF806000120C1
:1038E000ADF808000020ADF80A00ADF80C0001A901
:1038F0009B4802F054FA0C20ADF804000A20ADF801
:1039000006000120ADF808000020ADF80A00ADF86F
:103910000C0001A9924802F042FA0121904802F0FD
:1039200007FB012202218E4802F01DFB0122042127
:103930008B4802F018FB01220821894802F013FB92
:1039400001221021864802F00EFB07B000BD10B521
:1039500083481030008810F0020F3ED08049343187
:1039600008887F491031098821F400717C4A10329F
:10397000118079490831096811F0400F0AD079495E
:10398000088077492031098841F00201744A2032C9
:10399000118021E07449088071492031098821F0A3
:1039A00002016F4A203211806F4909886D4A1288DE
:1039B000914207DB6C4909886A4A1288891A644A6D
:1039C000118009E0674909884FF6FF72511A664A6B
:1039D000128811445E4A118000BF6148103000888F
:1039E00010F0040F36D05E49383108885A49083142
:1039F000096811F0800F0AD05C49088058492031CD
:103A0000098841F02001564A2032118021E05849AE
:103A1000088053492031098821F02001504A203282
:103A2000118053490988514A1288914207DB504955
:103A300009884E4A1288891A454A518009E04B4943
:103A400009884FF6FF72511A494A12881144404AB8
:103A5000518000BF42481030008810F0080F36D067
:103A60003F493C3108883D490831096811F0010F90
:103A70000AD0404908803A492031098841F4007150
:103A8000374A2032118021E03B49088034492031F7
:103A9000098821F40071324A2032118036490988A0
:103AA000344A1288914207DB33490988314A128827
:103AB000891A274A918009E02E4909884FF6FF723A
:103AC000511A2D4A12881144214A918000BF24487E
:103AD0001030008810F0100F38D021484030048892
:103AE0001E480830006810F0020F0AD023480480F6
:103AF0001B482030008840F40050194920310880CC
:103B000023E01F48048016482030008820F400502D
:103B10001349203108801A480088184909888842CA
:103B200007DB1748008815490988401A0849C880EA
:103B300009E0124800884FF6FF71081A10490988F9
:103B400008440349C880FFF74BFE00BF10BD0000CA
:103B5000200100204803002000080140000C014023
:103B60000004004010010020120100201401002078
:103B700016010020180100201A0100201C0100205D
:103B80001E01002010B588B004460121042001F078
:103B9000B1FB0121880301F0ADFB4FF40070ADF8DB
:103BA000040003208DF8060018208DF8070001A9F5
:103BB000934800F0E7FE4FF48060ADF80400032066
:103BC0008DF8060004208DF8070001A98C4800F04C
:103BD000D9FE04940020ADF81400ADF81600ADF83D
:103BE0001800ADF81C000C20ADF81A000020ADF84C
:103BF0000800ADF80A004FF40070ADF80C0000208A
:103C0000ADF80E0004A97F4800F04FF902A97D48E5
:103C100000F0C0F9012240F225517A4800F0DDF9A8
:103C20000121784800F0CDF908B010BD10B5082189
:103C3000744800F0A1FA10B1724800F033FA7148EC
:103C4000008810F0800F1ED06E480C30008810F0F5
:103C5000800F18D06C4801780078401C6A4A1070B8
:103C60006A48405C6749091D088010460078684929
:103C70000978884207D163480C30008820F0800022
:103C800060490C3108805F48008810F0200F6FD029
:103C90005C48001D0088C4B25E48007838B9AA2C80
:103CA00005D101205B4908705B4804705FE059480A
:103CB0000078012807D1AF2C05D1022055490870A2
:103CC0005548447053E053480078022809D1002C2D
:103CD00007DDF12C05DA03204E4908704E48847048
:103CE00045E04C48007803280CD1322C0ADA042035
:103CF000484908704848C470484804700020484942
:103D0000087034E043480078042819D1434800780B
:103D1000002815DD41480078401E404908704048A1
:103D200000783F490978491C3D4A1170001D3A4905
:103D30000C543A480078D0B905203649087016E08E
:103D40003448007805280FD10020324908703448E3
:103D50000078001D30490C5431480078401DC1B234
:103D60002D48FCF785FE02E000202A49087000BFBC
:103D700010BD10B50446264801780078401C244A3E
:103D8000107022484454012240F227711D4800F06F
:103D900024F910BD10B504460FE020780D2802D19B
:103DA000FFF7E7FF08E020780A2802D1FFF7E1FFDC
:103DB00002E02078FFF7DDFF641C20780028ECD1BA
:103DC00010BD70B505460E4600240AE0295D104876
:103DD00002780078401C0E4B18700C488154601C0F
:103DE000C4B2B442F2DB07480C30008810F0800FF8
:103DF00005D1012240F22771024800F0EEF870BDB3
:103E00000008014000380140280100205C03002028
:103E1000290100202A0100205C0400202B01002041
:103E20002C01002010B50446FB48844209D1012131
:103E3000880301F079FA00214FF4804001F074FA10
:103E400032E0F648844209D10121480401F079FAB0
:103E500000214FF4003001F074FA25E0F04884426C
:103E600009D10121880401F06CFA00214FF480206F
:103E700001F067FA18E0EB48844209D10121C80437
:103E800001F05FFA00214FF4002001F05AFA0BE034
:103E9000E548844208D10121080501F052FA0021C9
:103EA0004FF4801001F04DFA10BD2DE9F04786B0B7
:103EB00005460E460024A24600BFA1460027B08951
:103EC00000B100BF2F462C8A4CF6FF700440F088EA
:103ED00004432C82AC894EF6F3100440B08831893B
:103EE0000843718908430443AC81AC8A4FF6FF4014
:103EF0000440B0890443AC8201A801F08EF9C648A1
:103F0000874202D1DDF810A001E0DDF80CA0A889FD
:103F100010F4004F08D00AEBCA0000EB0A10316819
:103F20004900B0FBF1F807E00AEBCA0000EB0A1009
:103F300031688900B0FBF1F86420B8FBF0F00401AF
:103F40002009642101FB1089A88910F4004F08D0D2
:103F5000322000EBC900B0FBF1F000F00700044391
:103F600008E0322000EB09106421B0FBF1F000F012
:103F70000F0004432C8106B0BDE8F0874FF41651C2
:103F8000016000218180C18001810C2141810021DB
:103F90008181704710B502460020108A4FF2FF035E
:103FA00018400B884C8823438C882343CC882343B8
:103FB0001843108210BD0021018041808180C180A2
:103FC000704721B1828942F40052828104E08289E3
:103FD0004DF6FF731A4082817047F0B50346002406
:103FE000002600250020A1F510676A3F00D100BF20
:103FF0001846C1F3421401F01F06012707FA06F51F
:10400000012C01D10C3004E0022C01D1103000E071
:1040100014301AB107682F43076002E00768AF4306
:104020000760F0BD1AB1838A0B43838202E0838A62
:104030008B4383827047028A4FF6F0731A400282E4
:10404000028A0A430282704782894FF2FF731A4044
:10405000828182890A438281704721B1828942F03C
:104060000202828104E082894FF6FD731A40828148
:104070007047028A4FF6DF731A400282028A0A43AF
:104080000282704721B1028A42F48042028204E037
:10409000028A4BF6FF731A4002827047C1F308028E
:1040A0008280704701468888C0F308007047818984
:1040B00041F0010181817047028BD2B20283028BF1
:1040C00042EA012202837047028B02F47F4202839C
:1040D000028B0A430283704721B1828A42F0200298
:1040E000828204E0828A4FF6DF731A408282704730
:1040F00021B1828A42F01002828204E0828A4FF665
:10410000EF731A408282704721B1828A42F008021E
:10411000828204E0828A4FF6F7731A4082827047E7
:1041200021B1828942F40042828103E08289C2F394
:104130000E028281704721B1828A42F4006282823B
:1041400004E0828A4FF2FF731A4082827047828AAB
:104150004FF6FB731A408282828A0A43828270473A
:1041600021B1828A42F00202828204E0828A4FF602
:10417000FD731A408282704702460020B1F5007F2D
:1041800000D100BF13880B4201D0012000E00020C5
:10419000704701F40072B2F5007F00D100BFCA433E
:1041A0000280704770B502460024002300250020DD
:1041B000A1F510666A3E00D100BFC1F3421501F0BF
:1041C0001F03012606FA03F3012D02D1968933401D
:1041D00006E0022D02D1168A334001E0968A334070
:1041E0000C12012606FA04F41688344013B10CB1FF
:1041F000012000E0002070BD10B500220023A1F5D1
:1042000010646A3C00D100BF0A1201249440A3B29A
:10421000DC43048010BD0000003801400044004031
:1042200000480040004C004000500040314901432C
:10423000314A1160704770B5002100230F22C47805
:104240000CB32D4C246804F4E064C4F5E064210A46
:10425000C1F10403CA40447804FA03F1847814409D
:1042600021430901254C0678A155047804F01F0567
:104270000124AC4005786D114FF0E02606EB850572
:10428000C5F8004109E0047804F01F050124AC40A2
:104290001B4D0678761145F8264070BD194A0A4034
:1042A0000243154B1B1F1A60704739B1124A121D89
:1042B00012680243104B1B1D1A6006E00E4A121DC5
:1042C000126882430C4B1B1D1A607047042808D1EA
:1042D0004FF0E021096941F004014FF0E022116143
:1042E00007E04FF0E021096921F004014FF0E022DE
:1042F000116170470000FA050CED00E000E400E0F9
:1043000080E100E080FFFF1F01460020FE4A1068A8
:1043100000F03800084310607047FB49096821F03D
:104320000801F94A1160114609680143116070479C
:10433000F549096821F01001F34A11601146096836
:10434000014311607047F148EF494860F048486008
:104350007047EE48EC494860ED4848607047EA48CD
:10436000006940F08000E84908617047E64800694C
:1043700040F08000E449086170470420E249C968C0
:1043800011F0010F01D001200EE0DF49C96811F0E2
:10439000040F01D0022007E0DB49C96811F0100FBB
:1043A00001D0032000E00420704700B5024604233A
:1043B000FFF7E3FF034603E0FFF7DFFF0346521E6C
:1043C000012B01D1002AF7D102B90523184600BDFF
:1043D00030B5044604254FF43020FFF7E6FF0546CC
:1043E000042D17D1C848006940F00200C649086191
:1043F00008464461006940F0400008614FF43020F5
:10440000FFF7D3FF0546C048006941F6FD7108403B
:10441000BD490861284630BD10B504244FF4302052
:10442000FFF7C3FF0446042C16D1B748006940F0DB
:104430000400B54908610846006940F04000086181
:104440004FF43020FFF7B1FF0446AF48006941F652
:10445000FB710840AC490861204610BD00B502461A
:104460000423FFF78AFF034603E0FFF786FF0346B6
:10447000521E012B01D1002AF7D102B9052318469B
:1044800000BD10B504244FF43020FFF7E7FF0446C9
:10449000042C16D19C48006940F004009A49086138
:1044A0000846006940F0400008614FF43020FFF7F3
:1044B000D5FF04469448006941F6FB7108409249D3
:1044C0000861204610BD00208F49C96911F0020F14
:1044D00001D0012000E00020704730B5A52504245C
:1044E000FFF7F1FF00B100254FF43020FFF75DFF2B
:1044F0000446042C3AD18548834988608448886002
:104500000846006940F0200008610846006940F054
:10451000400008614FF43020FFF747FF0446042CA9
:104520001BD17948006941F6DF710840764908617E
:104530000846006940F01000086176480580E002F6
:10454000FFF733FF0446052C10D06F48006941F691
:10455000EF7108406C49086108E0052C06D06A48F4
:10456000006941F6EF71084067490861204630BD97
:1045700078B506460C46042500200090E802FFF7B7
:1045800014FF0546042D24D15F48006940F0010066
:104590005D4908613480E802FFF707FF0546042DF6
:1045A00010D1B01C0090200C00990880E802FFF7A1
:1045B000FCFE05465448006941F6FE710840524928
:1045C000086106E05048006941F6FE7108404E4916
:1045D0000861284678BD70B504460D460426F002F1
:1045E000FFF7E3FE0646042E11D14748006940F06C
:1045F0000100454908612580F002FFF7D6FE064616
:104600004148006941F6FE7108403F490861304663
:1046100070BD70B505460E460424E002FFF7C5FEE6
:104620000446042C17D139483749886038488860D7
:104630000846006940F0100008612E80E002FFF794
:10464000B4FE0446052C06D02F48006941F6EF71F0
:1046500008402D490861204670BD2DE9F04304460D
:104660004FF6FF763746B046B1460425E443E6B23E
:10467000C4F30727C4F307484FEA1469E802FFF7B9
:1046800094FE0546042D49D120481F4988602048E2
:1046900088600846006940F010000861FF2E06D0CF
:1046A0001C4808300680E802FFF77FFE0546042D0F
:1046B00008D1FF2F06D017480A300780E802FFF71D
:1046C00074FE0546042D0AD1B8F1FF0F07D011483A
:1046D0000C30A0F80080E802FFF767FE0546042DC5
:1046E0000AD1B9F1FF0F07D00A480E30A0F80090A8
:1046F000E802FFF75AFE0546052D0FD00248006973
:1047000041F6EF71084007E00020024023016745B1
:10471000AB89EFCD00F8FF1F664908612846BDE868
:10472000F08330B5054604244FF43020FFF73DFEFA
:104730000446042C41D160485E4988605F48886027
:104740000846006940F0200008610846006940F012
:10475000400008614FF43020FFF727FE0446042C88
:1047600022D15448006941F6DF710840514908617F
:104770000846006940F0100008611DB10020504952
:10478000088002E0A5204E4908804FF43020FFF752
:104790000CFE0446052C10D04648006941F6EF7126
:1047A00008404449086108E0052C06D041480069EA
:1047B00041F6DF7108403F490861204630BDF0B541
:1047C00005460E46174604243B483A4988603B4854
:1047D0008860E002FFF7E9FD0446042C19D1354852
:1047E000006940F010003349086147F0F800304399
:1047F00028433349891C0880E002FFF7D6FD0446B0
:10480000052C06D02B48006941F6EF710840294974
:1048100008612046F0BD2748C069800870472548D8
:10482000006A704700202349096811F0200F01D069
:10483000012000E00020704729B11E4A126902439E
:104840001C4B1A6104E01B4A12698243194B1A611E
:10485000704701460020012908D1164AD26912F09A
:10486000010F01D0012008E0002006E0114AD268C3
:104870000A4201D0012000E0002070470D49C860C5
:10488000704704200B49C96811F0010F01D00120C5
:104890000EE00849C96811F0040F01D0022007E0BA
:1048A0000449C96811F0100F01D0032000E0042072
:1048B000704700000020024023016745AB89EFCD1F
:1048C00000F8FF1F10B50446CA48844208D10121F0
:1048D000042000F029FD0021042000F025FD46E021
:1048E000C548844208D10121082000F01DFD0021A7
:1048F000082000F019FD3AE0C048844208D10121A7
:10490000102000F011FD0021102000F00DFD2EE020
:10491000BB48844208D10121202000F005FD002180
:10492000202000F001FD22E0B648844208D1012198
:10493000402000F0F9FC0021402000F0F5FC16E0DA
:10494000B148844208D10121802000F0EDFC002113
:10495000802000F0E9FC0AE0AC48844207D1012144
:10496000801500F0E1FC0021A01500F0DDFC10BD79
:1049700010B50121084600F0D7FC0021012000F00D
:10498000D3FC10BD2DE9F041024600250026002091
:1049900000230024002791F803C00CF00F0591F8C4
:1049A00003C01CF0100F03D091F802C04CEA0505BB
:1049B00091F800C0BCF1000F31D0146800202BE04A
:1049C0004FF0010C0CFA00F3B1F800C00CEA03063A
:1049D0009E4220D183004FF00F0C0CFA03F7BC432A
:1049E00005FA03FC4CEA040491F803C0BCF1280F5B
:1049F00006D14FF0010C0CFA00FCC2F814C00AE01A
:104A000091F803C0BCF1480F05D14FF0010C0CFA2E
:104A100000FCC2F810C0401C0828D1D31460B1F8C3
:104A200000C0BCF1FF0F34DD546800202EE000F11F
:104A3000080C4FF0010808FA0CF3B1F800C00CEABA
:104A400003069E4221D183004FF00F0C0CFA03F7AE
:104A5000BC4305FA03FC4CEA040491F803C0BCF122
:104A6000280F05D100F1080C08FA0CF8C2F81480E0
:104A700091F803C0BCF1480F07D100F1080C4FF0CA
:104A8000010808FA0CF8C2F81080401C0828CED3A0
:104A90005460BDE8F0814FF6FF7101800221817002
:104AA0000421C17070470246002093680B4201D078
:104AB000012000E0002070470146886880B27047FE
:104AC00002460020D3680B4201D0012000E0002004
:104AD00070470146C86880B2704701617047416104
:104AE00070470AB1016100E041617047C1607047E1
:104AF0004FF480320A4382618161826182698269F6
:104B0000704702460020424B18684FF680731840E9
:104B100040EA021008433E4B186070473D49C861A7
:104B20007047F0B50A46002300240021002500F05C
:104B30000046B6F1004F02D1354EF16901E0344E26
:104B40007168C0F3034583B200F44016B6F5401F08
:104B500008D121F070612E4E766826F070662C4FD9
:104B60007E6012E000F48016B6F5801F06D10326A1
:104B700006FA05F4A14341F0706106E0460D3601E6
:104B800003FA06F6B14341F0706122B1460D3601D9
:104B900003FA06F6314300F00046B6F1004F02D1A9
:104BA0001B4EF16101E01A4E7160F0BD30B500227C
:104BB0008B071C0F0F2303FA04F2154B08338C10DC
:104BC00053F824309343124C08348D1044F82530A8
:104BD00023468C1053F824308C07240F00FA04F479
:104BE00023430B4C08348D1044F8253030BD0A495E
:104BF0000860704700080140000C014000100140AF
:104C00000014014000180140001C01400020014038
:104C10000000014000002042DC00204210B50446A4
:104C2000F748844209D10121480500F08AFB0021A0
:104C30004FF4001000F085FB08E00121880500F02A
:104C400080FB00214FF4800000F07BFB10BD2DE9BC
:104C5000F04385B004460D460026B1460427DFF830
:104C6000A483A6884FF6C0700640684600F0D5FAC7
:104C7000DDF80880E448B8FBF0F01FFA80F946EA56
:104C80000906A68020884FF6FE7108402080002685
:104C9000DE49286888420CD828684000B8FBF0F04C
:104CA00087B2042F00DA04273E4309F10100208473
:104CB00027E0E888A0F53F41FF3906D1286800EBDE
:104CC0004000B8FBF0F087B209E0286800EBC001B3
:104CD00001EB0010B8FBF0F087B247F480473805CD
:104CE000000D01D147F0010747F4004006434FF49F
:104CF000967009FB00F04FF47A7190FBF1F0401CC4
:104D00002084A683208840F00100208026884FF66A
:104D1000F5300640A8886989084306432680A8899B
:104D200029890843208105B0BDE8F08341F288312C
:104D30000160002181804BF6FF71C180002101815B
:104D400041814FF480418181704721B1028842F056
:104D50000102028004E002884FF6FE731A400280CE
:104D6000704721B1828842F40062828004E0828828
:104D70004FF2FF731A408280704721B1828842F45B
:104D80008052828004E082884EF6FF731A4082804F
:104D9000704721B1028842F48072028004E00288E8
:104DA0004FF6FF631A400280704721B1028842F437
:104DB0000072028004E002884FF6FF531A4002801E
:104DC000704721B1028842F48062028004E00288C8
:104DD0004FF6FF331A40028070470A46002181894E
:104DE0004FF60173194002F0FE03194381817047A9
:104DF00021B1828942F00102828104E082894FF66A
:104E0000FE731A408281704721B1028842F040024D
:104E1000028004E002884FF6BF731A400280704798
:104E20001AB183880B43838002E083888B4383809D
:104E30007047018270470146088AC0B2704712B1BC
:104E400041F0010102E04FF6FE7319400182704704
:104E500008B5024600200090009200980844009097
:104E60000098008808BD21B1028842F40042028007
:104E700003E00288C2F30E0202807047B1F5006FB2
:104E800004D1028842F40062028004E002884FF2FA
:104E9000FF731A4002807047B1F5005F04D10288A9
:104EA00042F40052028004E002884DF6FF731A407B
:104EB0000280704721B1028842F48052028004E0EF
:104EC00002884EF6FF731A4002807047B1F5006FFA
:104ED00004D1028842F40062028004E002884FF2AA
:104EE000FF731A400280704721B1028842F020020D
:104EF000028004E002884FF6DF731A400280704798
:104F00000146088B0012704721B1028842F010025E
:104F1000028004E002884FF6EF731A400280704767
:104F200021B9028842F08002028004E002884FF634
:104F30007F731A4002807047B1F5804F05D0828B95
:104F40004BF6FF731A40828303E0828B42F4804267
:104F50008283704770B5024600240025002300209C
:104F6000958A138B1B0445EA030626F07F4404EA66
:104F700001068E4201D1012000E0002070BD10B575
:104F800001460020002300228B8A0A8B120443EA88
:104F9000020424F07F4010BD0CB50246002000231F
:104FA0000193009300920B0F019321F07F41019B2D
:104FB0001BB1009B1433009303E0090C009B1833D2
:104FC0000093009B1B680B4201D0012000E00020F1
:104FD0000CBD002221F07F42D3438382704730B55D
:104FE000024600200023948801F0E06504EA15439E
:104FF00021F07F41948A0C420AD04BB1012008E095
:105000000054004000127A0040420F00A0860100C8
:10501000002030BD002221F07F42D34383827047BD
:10502000DD48006840F00100DB4908600846406840
:10503000DA490840D849486008460068D84908401D
:10504000D54908600846006820F4802008600846BA
:10505000406820F4FE0048604FF41F0088607047ED
:10506000CD49096821F48031CB4A116011460968A5
:1050700021F480211160B0F5803F03D0B0F5802F7E
:105080000ED106E0C449096841F48031C24A11607A
:1050900007E0C149096841F4A021BF4A116000E05E
:1050A00000BF00BF704710B501460022002300205A
:1050B0004A11012A02D1B84C236806E0022A02D123
:1050C000B54C236A01E0B44C636A01F01F0201246D
:1050D00094401C4201D0012000E0002010BD38B5F2
:1050E000002000900024002500BF3120FFF7DBFFE7
:1050F00005460098401C00900098B0F5A06F01D0C4
:10510000002DF2D03120FFF7CEFF08B1012400E0DE
:105110000024204638BD014600209F4A106820F038
:10512000F80040EAC100106070479E49086070476F
:1051300002460020984B586820F47C1042EA010394
:105140001843954B5860704796490866704701466A
:105150000020914A506820F00300084350607047D7
:105160008D48406800F00C007047014600208A4AD4
:10517000506820F0F000084350607047014600205E
:10518000854A506820F4E06008435060704701464B
:105190000020814A506820F4605040EAC10050600D
:1051A000704729B17C4A527A02437B4B5A7204E021
:1051B000794A527A8243784B5A7270477A4908602A
:1051C000704701460020744A506820F4404008436C
:1051D000506070470021754A11706F4A82F82010A4
:1051E000012802D0042808D103E001216F4A117080
:1051F00004E005216D4A117000E000BF00BF704758
:105200006B49086070476449096A0143624A116248
:105210007047674944390860704730B50021002263
:10522000002400235C4D6D6805F00C0121B10429B8
:1052300005D0082923D105E05E4D056022E05D4DD3
:1052400005601FE0544D6D6805F47012524D6D6895
:1052500005F48034022505EB92421CB9564D5543A6
:1052600005600BE04C4D6D6815F4003F03D0524DC6
:105270005543056002E04F4D5543056002E04D4D3A
:10528000056000BF00BF444D6D6805F0F0010909DD
:105290004A4D6B5C0568DD4045603F4D6D6805F427
:1052A000E061090A454D6B5C4568DD4085603A4D1B
:1052B0006D6805F46051C90A404D6B5C4568DD407E
:1052C000C560354D6D6805F44041890B3C4D6B5C04
:1052D000C568B5FBF3F5056130BD29B12E4A5269A9
:1052E00002432D4B5A6104E02B4A526982432A4BF8
:1052F0005A61704729B1284A92690243264B9A6144
:1053000004E0254A92698243234B9A61704729B190
:10531000214AD2690243204BDA6104E01E4AD26975
:1053200082431D4BDA61704729B11B4AD2680243A0
:10533000194BDA6004E0184AD2688243164BDA60EF
:10534000704729B1144A12690243134B1A6104E0F1
:10535000114A12698243104B1A617047144940394F
:10536000086070470F49C86470470B49C87170479F
:105370000948406A40F0807007494862704701461A
:105380000020054A92680A4201D0012000E0002076
:105390007047014988727047001002400000FFF812
:1053A000FFFFF6FE00004242D800424220100240B9
:1053B0008004424200127A0000093D002D010020C5
:1053C0003D01002010B50446BE48844208D10121A9
:1053D0008014FFF7A9FF0021A014FFF7A5FF16E036
:1053E000B948844208D101210014FFF7AAFF002127
:1053F0002014FFF7A6FF0AE0B448844207D1012138
:10540000C013FFF79EFF0021E013FFF79AFF10BDC6
:1054100010B50022028802F441520B884C882343C5
:105420008C882343CC8823430C8923434C89234312
:105430008C892343CC8923431A430280838B4FF208
:10544000FF74234083830B8A038210BD2DE9F04F44
:1054500085B005460C464FF0000902274FF00008C2
:105460004FF0010B0026B246A88B4FF240010840D6
:10547000A88302202884B5F81C90A068022801D1D6
:1054800000BF38E0A08810B94FF0010B01E04FF0E9
:10549000020B8D48854200D100E000BF6846FFF74F
:1054A000BCFEDDF800A0E088B0F5007F0AD14FEA2D
:1054B0001A2000EB80004000A168B0FBF1F0401D15
:1054C00086B20BE04FEA4B10BAFBF0F000EB800025
:1054D0004000A168B0FBF1F0401D86B20A20B6FB87
:1054E000F0F606F00108A6EB0800C0F34F074FF6F0
:1054F000FF7000EA0828022F01DBFF2F02DD0227E0
:105500004FF00008E08840EA080038432884A0886B
:10551000A1890843618808432188084340F400605A
:1055200040EA0909A5F81C9005B0BDE8F08F0021FC
:10553000018041808180C180018141818181C1815F
:105540000721018270470021018041808180C18054
:105550000221816000218181704721B1028842F0DF
:105560004002028004E002884FF6BF731A400280B6
:10557000704721B1828B42F48062828304E0828B87
:105580004FF6FF331A408283704730B50024002362
:105590000C110125A540ABB21AB185881D43858049
:1055A00002E085889D43858030BD1AB183880B4316
:1055B000838002E083888B438380704781817047BA
:1055C000014688897047A1F57E42FF3A04D00288DF
:1055D00042F48072028004E002884FF6FF631A40B2
:1055E0000280704721B1828842F00402828004E088
:1055F00082884FF6FB731A408280704702884FF210
:10560000FF731A40028002880A43028070470188B3
:1056100041F480510180704721B1028842F4005268
:10562000028004E002884DF6FF731A400280704742
:1056300002460020012901D0108B00E0908A7047BB
:105640000146088A7047B1F5804F04D1028842F4C0
:105650008042028004E002884BF6FF731A40028009
:1056600070470246002013890B4201D0012000E060
:1056700000207047CA4302817047F0B502460020FF
:1056800000240023002501F00F070126BE40B4B21C
:105690000B1101269E40B3B2968806EA03051689CF
:1056A000264202D00DB1012000E00020F0BD10B56F
:1056B000002201F00F040123A3409AB2D3430381D7
:1056C00010BD00000030014000380040003C0040A8
:1056D00010B50446FE48844208D10121C014FFF7EA
:1056E00023FE0021E014FFF71FFEC4E0B4F1804F59
:1056F00008D101210846FFF724FE00210120FFF711
:1057000020FEB8E0F348844208D101210220FFF7CF
:1057100018FE00210220FFF714FEACE0EE488442A0
:1057200008D101210420FFF70CFE00210420FFF71F
:1057300008FEA0E0E948844208D101210820FFF7D3
:1057400000FE00210820FFF7FCFD94E0E4488442BD
:1057500008D101211020FFF7F4FD00211020FFF7F0
:10576000F0FD88E0DF48844208D101212020FFF7C6
:10577000E8FD00212020FFF7E4FD7CE0DA488442C8
:1057800008D101214014FFF7CFFD00216014FFF77D
:10579000CBFD70E0D548844209D10121C804FFF750
:1057A000C3FD00214FF40020FFF7BEFD63E0D048A9
:1057B000844209D101210805FFF7B6FD00214FF40D
:1057C0008010FFF7B1FD56E0CA48844209D101219B
:1057D0004805FFF7A9FD00214FF40010FFF7A4FDD5
:1057E00049E0C548844208D101214020FFF7A9FDC6
:1057F00000214020FFF7A5FD3DE0C048844208D1CC
:1058000001218020FFF79DFD00218020FFF799FDF9
:1058100031E0BB48844208D101218015FFF791FD9A
:105820000021A015FFF78DFD25E0B648844209D17F
:1058300001210804FFF778FD00214FF48030FFF7C5
:1058400073FD18E0B048844209D101214804FFF7F4
:105850006BFD00214FF40030FFF766FD0BE0AB4815
:10586000844208D101218804FFF75EFD00214FF436
:105870008020FFF759FD10BD00220288944B98420A
:105880000ED0994B98420BD0B0F1804F08D0914B7D
:10589000984205D0904B984202D0904B984204D148
:1058A0004FF68F731A404B881A438D4B984207D09E
:1058B0008C4B984204D04FF6FF431A40CB881A43D2
:1058C00002808B8883850B880385814B98420BD09F
:1058D000854B984208D08B4B984205D08A4B984212
:1058E00002D08A4B984201D10B7A0386012383822E
:1058F000704770B5002400220023058C4FF6FE7619
:1059000035400584028C8388048B4FF68F752C40BC
:10591000B51E2C400D882C43751E2A400D892A4344
:105920004D882A436A4DA8420BD06F4DA84208D03B
:10593000744DA84205D0744DA84202D0734DA842C0
:1059400013D14FF6F7752A404D892A434FF6FB7560
:105950002A408D882A434FF6FF652B404FF6FF55AE
:105960002B408D892B43CD892B4383800483CD88A5
:105970008586028470BD70B5002400220023058C4A
:105980004FF6EF7635400584028C8388048B48F609
:10599000FF752C404FF6FF452C400D884FF6FF76E3
:1059A00006EA05252C434FF6DF752A400D8906EAE5
:1059B00005152A434D8806EA05152A43444DA84299
:1059C00002D0494DA8421DD14FF67F752A404D891E
:1059D0004FF6FF7606EA05152A434FF6BF752A40B3
:1059E0008D8806EA05152A434FF6FF352B404FF206
:1059F000FF752B408D8906EA85052B43CD8906EA84
:105A000085052B4383800483CD880587028470BD80
:105A100070B5002400220023058C4FF6FF66354048
:105A20000584028C8388848B4FF68F752C404FF64B
:105A3000FC752C400D882C434FF6FF552A400D89EC
:105A40004FF6FF7606EA05252A434D8806EA052526
:105A50002A431F4DA84202D0234DA8421DD14FF228
:105A6000FF752A404D894FF6FF7606EA05252A4341
:105A70004FF6FF352A408D8806EA05252A434EF663
:105A8000FF752B404DF6FF752B408D8906EA0515F5
:105A90002B43CD8906EA05152B4383808483CD886B
:105AA0008587028470BD70B5002200230024058C18
:105AB0004EF6FF7635400584038C8488828B48F649
:105AC000FF752A404FF6FF452A400D8820E0000070
:105AD000002C01400004004000080040000C004081
